:100000000C9434000C9451000C9451000C94510049
:100010000C9451000C9451000C9451000C9451001C
:100020000C9451000C9451000C9451000C948407D2
:100030000C9451000C9451000C9464090C945100E0
:100040000C9451000C9451000C940D0A0C943E0A2F
:100050000C9451000C9451000C94FA000C94510033
:100060000C9451000C94510011241FBECFEFD8E026
:10007000DEBFCDBF11E0A0E0B1E0ECEEF7E102C0E1
:1000800005900D92A63DB107D9F725E0A6EDB1E0A8
:1000900001C01D92A334B207E1F70E94EC0A0C9450
:1000A000E00B0C9400000E94C800892B99F4809109
:1000B000D601882379F062E170E081E792E00E9446
:1000C000480142E161E772E080E490E00E94D300E1
:1000D0001092D601089581E08093D601089569E6D3
:1000E00071E081E792E00E947701009769F062E198
:1000F00070E081E792E00E94600131E020E0892B0E
:1001000009F430E0832F922F089562E170E080E0DF
:1001100091E00E94480142E160E071E080E490E0FB
:100120000C94D30042E161E772E080E490E00C942B
:10013000B3000E94C800892BE1F742E161E772E059
:1001400080E490E00E94B3000E946F00892B19F0B8
:100150001092D60108950E9485000E949200F4CF6B
:10016000FA9AF99A0895413450F42091830221308B
:10017000E1F3FB019C01922F981B941708F008955E
:1001800032BD21BDF89A90B591932F5F3F4FF3CFC9
:100190002091830281E090E0213011F090E080E036
:1001A0000895FB9A089520918302211120C04134C3
:1001B000F0F49C01240F311D21153440C0F421E0DE
:1001C0002093830290938502809384021092870487
:1001D000962FA7E8B2E0FB018E2F891B841720F031
:1001E000409386020C94D10081918D93F5CF0895B0
:1001F000FB9808951F920F920FB60F9211242F9320
:100200003F934F935F936F937F938F939F93AF939E
:10021000BF93EF93FF939091870480918602981784
:1002200070F58091850282BD8091840281BDE0914C
:100230008704F0E0E957FD4F808180BD0E94B00047
:10024000809187048F5F80938704809184029091CE
:10025000850201969093850280938402FF91EF912D
:10026000BF91AF919F918F917F916F915F914F91CE
:100270003F912F910F900FBE0F901F9018950E94E5
:10028000F80010928302EACF8FB780688FBF08957D
:100290006230710580F0FC0130E020E061507109AE
:1002A000AF01481B590B4617570730F0860F971FB1
:1002B0002195FC01208308954191240F311DF0CF39
:1002C0006230710588F0FC01680F791F30E020E092
:1002D0008191280F311D6E177F07D1F781E090E0E3
:1002E000222321F080E0089580E090E00895DC0171
:1002F000FB019D912191992339F0222311F092174E
:10030000C1F380E090E0089581E090E0211180E069
:10031000089567E370E082E191E00E94480147E3BD
:1003200062E171E090E080E00C94D30066EB71E054
:1003300088E894E00E947701009769F067E370E035
:1003400088E894E00E94600131E020E0892B09F404
:1003500030E0832F922F089547E368E874E090E03F
:1003600080E00C94B3000E94C800892BE1F70E9442
:10037000AC010E949601892B09F008950E94890121
:10038000F6CF9093D8018093D7011092DB011092A1
:10039000DA011092D90160E070E080E090E00E9404
:1003A000D0090C9432028091D7019091D801892B09
:1003B00009F452C080E090E00E94B709892B09F44B
:1003C0004BC08091D901811134C02091DA01309164
:1003D000DB01E091D701F091D801E20FF31F80819A
:1003E0008032E9F03CF481111DC01092DB011092C3
:1003F000DA0108958D3239F08E32A1F40E94300274
:100400006AEF70E004C00E9430026EEE72E080E09D
:1004100090E00E94D00981E08093D901089568EEB0
:1004200073E00BC02F5F3F4F3093DB012093DA0165
:1004300008950E94320264E670E080E090E00E943D
:10044000D0091092D9018091DA019091DB010196D7
:100450009093DB018093DA010895219A29980895F9
:10046000299A08952998089585B18695817090E01C
:1004700008958031910504F527E0289FA001299F68
:10048000500D1124FA01E152FE4F80818132A0F417
:1004900080E090E020E0FA01E80FF91FE152FE4F02
:1004A0003081230F019687309105A9F781E090E014
:1004B000222321F080E0089580E090E008956F927B
:1004C0007F928F929F92AF92BF92CF92DF92EF92E4
:1004D000FF920F931F93CF93DF930E94C800892B45
:1004E000E1F70FE412E0C0E8D0E0BE01615A7E4FB0
:1004F00047E0CE010E94B300F80111928F012796C8
:10050000C03FD10591F74FEDE42E41E0F42E870175
:10051000C0E0D0E0D12CB12C77247A94CE010E9497
:100520003902892B41F0F8018081871520F4BC2E17
:10053000782EDD24D3942196095F1F4FC031D10559
:1005400069F7DD2009F46AC0B092DE017092DD0126
:10055000CB2DD0E08E010F5F1F4F872C2FE0A22EF6
:1005600037E0932E6801FFE0CF22DD24C6010E9410
:100570003902892B61F4B092DC018E01015011091E
:10058000609780E1A82EB12C97E0692E3AC09C9C20
:10059000F0019D9CF00D1124E152FE4F4081242F6B
:1005A00030E0882D90E001968F7199272817390740
:1005B00011F7C092DE014093DD01AA940F5F1F4F37
:1005C000AA20C9F2842ECECFF701208130E0872DFA
:1005D00090E04F968F7199272817390731F5C0920F
:1005E000DC01689CF001699CF00D1124E152FE4F82
:1005F000708001501109F7E0EF0EF11C0C171D0778
:10060000A1F0C801B5010E94710B6C014C01992445
:10061000C4010E943902892BB9F607C08FE080938C
:10062000DE011092DD011092DC01DF91CF911F916C
:100630000F91FF90EF90DF90CF90BF90AF909F9081
:100640008F907F906F900895EF92FF921F93CF93BA
:10065000DF930E94C800892B39F5EFE4F2E0C0E097
:10066000D0E081918823E1F017E01C9FC0011D9F1D
:10067000900D11249C0121523E4F790167E070E0FA
:10068000C9010E944801C19FC001112447E0B70180
:1006900080589F4F0E94D300C15BDD4F188204C079
:1006A0002196C031D105E9F6DF91CF911F91FF90DE
:1006B000EF900895EF92FF920F931F93CF93DF93E4
:1006C000E82EC091DE01D0E02196CF70DD27809129
:1006D000DC0190E00E943902F82E8091DD018F5FED
:1006E000813218F48093DD0102C01092DD0187E0B1
:1006F0008C9F80018D9F100D112401521E4F8091FF
:10070000DD01F80180830E942704F8016183728370
:1007100083839483E582C093DE0167E070E0C801C3
:100720000E944801C15BDD4F81E088838091DE013A
:100730009091DC01891308C0FF2031F090E0019610
:100740008F7099278093DC01DF91CF911F910F91DA
:10075000FF90EF900895EFEDF1E0AFE4B2E08FEF9E
:100760004FEF5FEFBA0191E080838583418352832D
:10077000638374839D93379622E0EF34F207A1F7E9
:100780008FE08093DE011092DC011092DD0108956C
:100790000F931F93CF93DF930091DC01C02F10E0E4
:1007A000D0E0CE010E943902892B29F02196CF702A
:1007B0001F5F0C13F5CF812FDF91CF911F910F9108
:1007C0000895AF92BF92CF92DF92EF92FF920F9374
:1007D0001F93CF93DF936B017C018A0159010E9423
:1007E000C80390E0A0E0B0E0C816D906EA06FB0610
:1007F000F8F48091DC0190E0C80ED91E8FE0C82289
:10080000DD2487E08C9DF0018D9DF00D1124E152D7
:10081000FE4F81819281A381B481E801888399830D
:10082000AA83BB838581F501808381E090E002C0CB
:1008300080E090E0DF91CF911F910F91FF90EF90BA
:10084000DF90CF90BF90AF9008950C94A9070F93BD
:100850001F930E94B8070091BF041091C00420911B
:10086000C1043091C204600F711F821F931F1F913A
:100870000F9108959C0160E971E00E945D0B892B46
:1008800079F0C90183709927892B61F4C90164E665
:1008900070E00E945D0B9C0181E0232B21F402C0DB
:1008A00081E0089580E008952F923F924F925F92E9
:1008B0006F927F928F929F92AF92BF92CF92DF9270
:1008C000EF92FF920F931F93CF93DF93CDB7DEB7D5
:1008D00067970FB6F894DEBF0FBECDBF2CE0EDE5F5
:1008E000F1E0AE014F5F5F4F1A01DA0101900D9206
:1008F0002A95E1F7DC012C91220F2056322F330F7D
:10090000330F230F11963C9111973153230F2D87ED
:1009100013962C911397022E000C330B20533109A0
:100920006AE0629FA001639F500D11241496CC9041
:100930000C2C000CDD08B0E3CB1AD108C40ED51E78
:10094000860101501109FC012681022E000C330B97
:1009500020533109E8EEF3E02E9FA0012F9F500DA8
:100960003E9F500D1124DC0117962C911797022EF3
:10097000000C330B2053310974E6729F7001739F92
:10098000F00C1124E40EF51E18964C911897042EC5
:10099000000C550B40535109649F9001659F300D29
:1009A0001124E20EF31E19962C911997F701E20F0C
:1009B000F11D27FDFA95AF0158507A011B962C9135
:1009C0001B97220F2056322F330F330F230F1C9605
:1009D0003C911C973053230F298B1E962C911E9708
:1009E000220F2056322F330F330F230F1F963C91C7
:1009F0001F973053230F2A8B51962C915197220F1A
:100A00002056322F330F330F230F52968C91805381
:100A1000280F2B8BCA010E943A04882321F05D85A0
:100A2000523008F08601C70160E971E00E945D0B59
:100A3000FC01DB0120E839E540E650EF0E94D50BD0
:100A40002B013C01CF0164E670E00E945D0BFC01CC
:100A5000DB0120E032EC47E15CEB0E94D50B4B015F
:100A60005C01DF01B695A795B695A79520E83FE113
:100A700046E857E00E94D50B6B017C01DF01A370B3
:100A8000BB2720E833E341EE51E00E94D50B6C8B8D
:100A90007D8B8E8B9F8BF1018E2F82199D858917FF
:100AA00020F48191080F111DF7CFA9892A2F30E07A
:100AB000A0E1BEE00E94C60B6D877E878F87988B72
:100AC000BA892B2F30E0ACE3B0E00E94C60B2D8535
:100AD0003E854F855889260F371F481F591FDA0159
:100AE000C9013B89830F911DA11DB11D480E591EDF
:100AF0006A1E7B1E840C951CA61CB71CC80CD91C36
:100B0000EA1CFB1C8C899D89AE89BF89C80ED91E41
:100B1000EA1EFB1ED80120E831E541E050E00E94CA
:100B2000D50BDC01CB018C0D9D1DAE1DBF1D80932F
:100B3000BF049093C004A093C104B093C20467960D
:100B40000FB6F894DEBF0FBECDBFDF91CF911F91DE
:100B50000F91FF90EF90DF90CF90BF90AF909F905C
:100B60008F907F906F905F904F903F902F900C945C
:100B7000C407EF92FF920F931F93CF93DF93CDB7EC
:100B8000DEB768970FB6F894DEBF0FBECDBF7B010E
:100B90002CE0EDE5F1E0DE011D9601900D922A9525
:100BA000E1F78E010F5F1F4F2CE0F80111922A959B
:100BB000E9F70E943A048A83DE011D9680E0F7017E
:100BC000408151819D91F80121918F0130E0290FE1
:100BD000311D4217530740F0421B530BF70151835D
:100BE00040838F5F8C3059F768960FB6F894DEBF5C
:100BF0000FBECDBFDF91CF911F910F91FF90EF906E
:100C000008954F925F926F927F928F929F92AF92D0
:100C1000BF92CF92DF92EF92FF92CF93DF9300D0FB
:100C2000CDB7DEB72B013C0181E090E0A0E0B0E061
:100C300020E8421629E5520620E6620620EF7206F9
:100C400018F480E090E0DC0120E931E0829F50015F
:100C5000839FB00C929FB00C112480E3A81A88EFF8
:100C6000B80AC12CD12C7601C39420E8421629E59C
:100C7000520620E6620620EF720618F4C12CD12C31
:100C80007601A701960160E879E580E690EF0E9481
:100C90004D0B73016201C61AD70AE80AF90A81E00E
:100CA00090E0A0E0B0E0C11422ECD20627E1E20619
:100CB0002CEBF20618F480E090E0DC0144E6489F5B
:100CC0009001499F300D1124A20EB31E21E030E0A7
:100CD00040E050E0C11482ECD80687E1E8068CEBD6
:100CE000F80618F420E030E0A90160E072EC87E13A
:100CF0009CEB0E944D0BA7019601261B370B480B5E
:100D0000590BCA01B90120E83FE146E857E00E94CB
:100D1000850B220F331F220F331FA20EB31E20E8B4
:100D200033E341EE51E00E94850B7501E20EF31EA4
:100D300020E831E541E050E00E94850B4B015C0169
:100D40003A832983BE016F5F7F4FC7010E94B905B7
:100D5000D82EC501B40120E13EE040E050E00E9401
:100D6000850B29013A014B015C016AEB71E089E4D2
:100D700091E00E9418076D2D70E06F5F7F4F42E099
:100D800089E491E00E94220769817A816F5F7F4F39
:100D900042E08CE491E00E94220744E0B7018FE436
:100DA00091E00E94220742E0B20184E591E00E94B6
:100DB0002207C501B4012CE330E040E050E00E947E
:100DC000850B49015A016B017C0142E0B40187E5C2
:100DD00091E00E94220742E0B6018AE591E00E947C
:100DE000220789E491E00F900F90DF91CF91FF905F
:100DF000EF90DF90CF90BF90AF909F908F907F90BB
:100E00006F905F904F9008950F931F930E94B807C3
:100E10000091BF041091C0042091C1043091C2041C
:100E2000600F711F821F931F1F910F910C94010679
:100E3000FC01DB018D91BD01882311F08193F9CF75
:100E4000108208959F92AF92BF92CF92DF92EF925D
:100E5000FF920F931F93CF93DF9300D000D01F9288
:100E6000CDB7DEB7FC016B019E012F5F3F4F8E01B6
:100E70000A5F1F4FEE24E394F12C9AE0992E9E9C7A
:100E800050019F9CB00C1124C601B5010E945D0B5E
:100E9000B7010E945D0BD9016D939D01C61AD1085F
:100EA00067FDD3947501A017B10749F760E070E0C2
:100EB00084E090E050E0D8012E918D01211105C011
:100EC0006115710511F4009741F4841795072CF40E
:100ED000205D219361E070E004C0841795070CF455
:100EE0003196019740F70F900F900F900F900F9051
:100EF000DF91CF911F910F91FF90EF90DF90CF90F6
:100F0000BF90AF909F9008951F920F920FB60F92CF
:100F100011248F939F93AF93BF9380915F02909121
:100F20006002A0916102B09162020196A11DB11D03
:100F300080935F0290936002A0936102B09362027B
:100F4000BF91AF919F918F910F900FBE0F901F9007
:100F5000189583E294EF9093890080938800109213
:100F600080008CE08093810082E080936F00089580
:100F70002FB7F89460915F027091600280916102D6
:100F8000909162022FBF08958FB7F89410925F027C
:100F90001092600210926102109262028FBF089557
:100FA0000E94FA09789408950C94920ACF93DF93E3
:100FB000EC018991882319F00E94920AFACFDF91FF
:100FC000CF910895CF93C82F90E024E09595879511
:100FD0002A95E1F78A3010F4805D01C0895C0E9497
:100FE000920A8C2F8F708A3010F0895C01C0805D6E
:100FF000CF910C94920ACF93C82F892F0E94E207B9
:101000008C2FCF910C94E2072F923F924F925F92D8
:101010006F927F928F929F92AF92BF92CF92DF9208
:10102000EF92FF920F931F93CF93DF93CDB7DEB76D
:1010300063970FB6F894DEBF0FBECDBF6B017C0186
:1010400097FF0DC0F094E094D094C094C11CD11CC3
:10105000E11CF11C81E090E09B8B8A8B02C01B8A13
:101060001A8AFE0131965F018E01055F1F4FF98BD1
:10107000E88B66246394712C812C912CAAE0B0E05B
:101080009301A4010E94D50B1B012C01C701B601DD
:101090009101A2010E94A70B9301A4010E94A70B3A
:1010A000E889F9892193F98BE88B822F220F990B1C
:1010B000AA0BBB0BC81AD90AEA0AFB0A3101420182
:1010C0000E171F07D9F68A899B89892B11F08DE2AB
:1010D00001C080E20E94920A20E030E0F801829193
:1010E0008F01811106C02115310519F4EA15FB05A0
:1010F00029F4805D0E94920A21E030E00A151B0568
:1011000069F763960FB6F894DEBF0FBECDBFDF91CF
:10111000CF911F910F91FF90EF90DF90CF90BF90F4
:10112000AF909F908F907F906F905F904F903F9087
:101130002F9008952F923F924F925F926F927F92DD
:101140008F929F92AF92BF92CF92DF92EF92FF92D7
:101150000F931F93CF93DF93CDB7DEB764970FB68E
:10116000F894DEBF0FBECDBF8C016115710509F487
:1011700092C0812C912C5401CB01A0E0B0E0898B6E
:101180009A8BAB8BBC8BDE0111961D0189899A89E4
:10119000AB89BC8988169906AA06BB0608F07BC0F5
:1011A000812F0E94E207802F807F0E94E20780E269
:1011B0000E94D40761017801412C512C320141E099
:1011C000B601C7010E94B300BFEFEB1AFB0AEFEFB5
:1011D0004E1A5E0A6E0A7E0AFFEF8F1A9F0AAF0A46
:1011E000BF0A89899A89AB89BC8988169906AA069B
:1011F000BB0650F068019FE0C922DD2400E010E04A
:1012000032016C0C7D1C09C0AFEFCA1ADA0AC701A3
:101210008F709927892B99F6EDCF0C151D0518F0C5
:101220000615170528F08EEC91E00E94D6070BC03A
:10123000F801EC19FD09E20DF31D80810E94E2071F
:1012400080E20E94D4070F5F1F4F0031110529F77C
:1012500000E010E0C016D10631F080E20E94D40711
:101260000F5F1F4FF7CF8101C801821993098415C1
:10127000950558F4F80181918F0190EE980F903602
:1012800008F08EE20E94D407EFCF82ED91E00E9439
:10129000D60787017BCF64960FB6F894DEBF0FBEEA
:1012A000CDBFDF91CF911F910F91FF90EF90DF9015
:1012B000CF90BF90AF909F908F907F906F905F90F6
:1012C0004F903F902F9008951F920F920FB60F925C
:1012D00011242F933F938F939F9320916902309114
:1012E0006A0280916502909166022817390749F0D9
:1012F0008091690290916A02019690936A028093AC
:10130000690220916B0230916C028091670290918A
:1013100068022817390749F080916B0290916C029E
:10132000019690936C0280936B029F918F913F91F5
:101330002F910F900FBE0F901F90189589EF87BDCA
:1013400082E084BD93E095BD80936E000895823065
:10135000910550F4F894880F991FFC01E759FD4F4F
:10136000808191817894089580E090E008958230A2
:10137000910598F4880F991FFC01E759FD4F2081D2
:101380003181FC01EB59FD4F81E090E040815181BA
:101390004217530721F080E0089580E090E008951F
:1013A0000F931F93CF93DF93EC018B018091630226
:1013B00090916402892B41F40E949E0981E090E0A3
:1013C0009093640280936302C230D10570F48FB7AA
:1013D000F894CC0FDD1FFE01EB59FD4F1183008304
:1013E000C759DD4F198218828FBFDF91CF911F91AE
:1013F0000F9108951092C00087E690E09093C50089
:101400008093C400E1ECF0E088E1808386E0809383
:10141000C2008081806A808308951F920F920FB668
:101420000F9211242F938F939F93EF93FF938091AB
:101430006F022091700290E0821B910901978F73D7
:101440009927892B79F0E0917002F0E08091C60035
:10145000ED53FB4F8083809170028F5F8F73809379
:10146000700202C08091C600FF91EF919F918F9111
:101470002F910F900FBE0F901F9018951F920F92F3
:101480000FB60F9211242F938F939F93EF93FF9397
:1014900080916E0220916D0290E0821B91098F7302
:1014A0009927892B79F0E0916D02F0E0ED5FFA4F1A
:1014B00080818093C60080916D028F5F8F738093CF
:1014C0006D0205C08091C1008F7D8093C100FF91A6
:1014D000EF919F918F912F910F900FBE0F901F90C2
:1014E00018958091700290916F02891B8F730895F7
:1014F0008091700220916F0290E0821B91098F739E
:101500009927892B69F0E0916F02F0E0ED53FB4FD2
:10151000808190916F029F5F9F7390936F020895F7
:1015200080E008950FB607FE0EC020916D029091E5
:101530006E0230E0291B3109215031092F73332706
:10154000232B99F30DC020916D0290916E0230E033
:10155000291B3109215031092F733327232B61F0C7
:10156000E0916E02F0E0ED5FFA4F808380916E02B1
:101570008F5F8F7380936E028091C1008062809331
:10158000C10008951F93CF93DF93EC0180E011E039
:10159000180FFE01E80FF11D8081882321F00E94C1
:1015A000920A812FF4CFDF91CF911F9108951F935D
:1015B000CF93DF93EC0180E011E0180FFE01E80FFC
:1015C000F11D8491882321F00E94920A812FF4CF8B
:1015D000DF91CF911F9108950E9444010E94D0078E
:1015E0000E9499000E942D020E945F020E94250421
:1015F0000E94B3018DE691E00E94C10185E791E070
:101600000E94540489E891E00E94D6078CE894E097
:101610000E94D60783EB91E00E94D60788E994E008
:101620000E94D60783EB91E00E94D60788E894E0F9
:101630000E94D60783EB91E00E94D60781E0809359
:101640007D020E946B000E94AB038AEA0E945A034B
:101650008BEB0E945A038CEC0E945A03D0E0C0E04E
:101660000E94D3010E94C800892B11F40E94240318
:101670000E94C800892B11F40E9453000E94C800E8
:10168000892B71F7209761F760E071E090E080E0CE
:101690000E949A08C1E0D0E0E3CFDB018F939F93D3
:1016A0000E94D50BBF91AF91A29F800D911DA39F6A
:1016B000900DB29F900D11240895AA1BBB1B51E100
:1016C00007C0AA1FBB1FA617B70710F0A61BB70BB2
:1016D000881F991F5A95A9F780959095BC01CD0157
:1016E000089597FB072E16F4009407D077FD09D0D4
:1016F0000E945D0B07FC05D03EF4909581959F4FAD
:101700000895709561957F4F0895A1E21A2EAA1B46
:10171000BB1BFD010DC0AA1FBB1FEE1FFF1FA217A1
:10172000B307E407F50720F0A21BB30BE40BF50B9E
:10173000661F771F881F991F1A9469F76095709527
:10174000809590959B01AC01BD01CF010895052EB8
:1017500097FB1EF400940E94BE0B57FD07D00E9419
:10176000850B07FC03D04EF40C94BE0B50954095AE
:10177000309521953F4F4F4F5F4F0895909580953D
:10178000709561957F4F8F4F9F4F0895A29FB00135
:10179000B39FC001A39F700D811D1124911DB29FA5
:1017A000700D811D1124911D08950E94C60BA59FE7
:1017B000900DB49F900DA49F800D911D112408954C
:0417C000F894FFCFCB
:1017C400030B443100802500002D00040B4430003D
:1017D400802500002D0002060024F400010C617431
:0817E4006D65676133323800C6
:1017EC0041535500FE03FE030000010000C0A80198
:1017FC006400534552004461566F6E7465000000DE
:10180C000000436172746572000000000000737583
:10181C007065723133333700000000000000446102
:10182C0056436172555341000030302F30302F3009
:10183C003030302030303A30303A3030001F1C1FFE
:10184C001E1F1E1F1F1E1F1E1F415355002D2D2D09
:10185C00202D2E2D0030312F30312F3230313920C8
:10186C0030303A30303A303000534552203438362C
:10187C002050726F6A656374203220E2809320449A
:10188C0061566F6E74652043617274657220766167
:10189C00756C740A0D005345520030302F30302FC8
:1018AC00303030302030303A30303A303000202078
:0618BC0020000D0A0000EF
:00000001FF
